{
  "transactions": [
    {
      "hash": "0x99560f8593e8fcac0febc303f238f9a02e8797840764211f85085afef7868150",
      "transactionType": "CREATE",
      "contractName": "InsuranceCore",
      "contractAddress": "0x777f89bd5244bb8cae11f57eee52d6957140ede0",
      "function": null,
      "arguments": null,
      "transaction": {
        "from": "0x6a3131c7a9228c7953e79d903c4fb8161ab4521e",
        "gas": "0x1277ba",
        "value": "0x0",
        "input": "0x608060405234801561001057600080fd5b5060018055610020600033610051565b5061004b7fa49807205ce4d355092ef5a8a18f56e8913cf4a201fbe287825b095693c2177533610051565b506100fd565b6000828152602081815260408083206001600160a01b038516845290915281205460ff166100f3576000838152602081815260408083206001600160a01b03861684529091529020805460ff191660011790556100ab3390565b6001600160a01b0316826001600160a01b0316847f2f8788117e7eff1d82e926ec794901d17c78024a50270940304540a733656f0d60405160405180910390a45060016100f7565b5060005b92915050565b610e858061010c6000396000f3fe608060405234801561001057600080fd5b506004361061010b5760003560e01c80638079ab67116100a2578063a7a1d5eb11610071578063a7a1d5eb146103e4578063d38e71b9146103ed578063d547741f14610400578063e150c33814610413578063fa42e1db1461042657600080fd5b80638079ab671461030a57806391d1485414610389578063a217fddf1461039c578063a67fd0a7146103a457600080fd5b806330d0ea31116100de57806330d0ea311461021557806336568abe1461023c57806341ef28a71461024f57806375b238fc146102e357600080fd5b806301ffc9a714610110578063035fe40314610138578063248a9ca3146101cf5780632f2ff15d14610200575b600080fd5b61012361011e366004610c8d565b610439565b60405190151581526020015b60405180910390f35b6101ad610146366004610cda565b6001600160a01b03908116600090815260036020818152604092839020835160a0810185528154909516855260018101549185018290526002810154938501849052918201546060850181905260049092015460ff16151560809094018490529391929091565b604080519485526020850193909352918301521515606082015260800161012f565b6101f26101dd366004610cf5565b60009081526020819052604090206001015490565b60405190815260200161012f565b61021361020e366004610d0e565b610470565b005b6101f27f4848aa3d2c0568bab3ca9720f91818ee0957e95426fa0627cc4809e2e5ed8be081565b61021361024a366004610d0e565b61049b565b6102b961025d366004610cf5565b600090815260026020818152604092839020835160a081018552815480825260018301549382018490529382015494810185905260038201546060820181905260049092015460ff161515608090910181905292949193929091565b6040805195865260208601949094529284019190915260608301521515608082015260a00161012f565b6101f27fa49807205ce4d355092ef5a8a18f56e8913cf4a201fbe287825b095693c2177581565b610355610318366004610cda565b6003602081905260009182526040909120805460018201546002830154938301546004909301546001600160a01b03909216939092909160ff1685565b604080516001600160a01b03909616865260208601949094529284019190915260608301521515608082015260a00161012f565b610123610397366004610d0e565b6104d3565b6101f2600081565b6102b96103b2366004610cf5565b600260208190526000918252604090912080546001820154928201546003830154600490930154919392909160ff1685565b6101f260045481565b6101f26103fb366004610d3a565b6104fc565b61021361040e366004610d0e565b610784565b610213610421366004610d6f565b6107a9565b610213610434366004610da2565b610979565b60006001600160e01b03198216637965db0b60e01b148061046a57506301ffc9a760e01b6001600160e01b03198316145b92915050565b60008281526020819052604090206001015461048b81610b46565b6104958383610b53565b50505050565b6001600160a01b03811633146104c45760405163334bd91960e11b815260040160405180910390fd5b6104ce8282610be5565b505050565b6000918252602082815260408084206001600160a01b0393909316845291905290205460ff1690565b60008084116105525760405162461bcd60e51b815260206004820152601760248201527f496e76616c696420636f76657261676520616d6f756e7400000000000000000060448201526064015b60405180910390fd5b600083116105955760405162461bcd60e51b815260206004820152601060248201526f24b73b30b634b210323ab930ba34b7b760811b6044820152606401610549565b6001600160a01b03808316600090815260036020818152604092839020835160a0810185528154909516855260018101549185019190915260028101549284019290925281015460608301526004015460ff161515608082018190526106335760405162461bcd60e51b8152602060048201526013602482015272151bdad95b881b9bdd08195d985b1d585d1959606a1b6044820152606401610549565b60001960005b6004548110156106d657600081815260026020818152604092839020835160a081018552815481526001820154928101929092529182015492810192909252600381015460608301526004015460ff16158015608083018190529061069f575080518811155b80156106af575080604001518710155b80156106bf575080606001518711155b156106cd57819250506106d6565b50600101610639565b5060001981036107285760405162461bcd60e51b815260206004820152601b60248201527f4e6f207375697461626c6520636f766572616765206f7074696f6e00000000006044820152606401610549565b600081815260026020526040902060010154612710906107489088610dea565b6107529190610e01565b925060648260400151846107669190610dea565b6107709190610e01565b61077a9084610e23565b9695505050505050565b60008281526020819052604090206001015461079f81610b46565b6104958383610be5565b7f4848aa3d2c0568bab3ca9720f91818ee0957e95426fa0627cc4809e2e5ed8be06107d381610b46565b6001600160a01b0384166108215760405162461bcd60e51b8152602060048201526015602482015274496e76616c696420746f6b656e206164647265737360581b6044820152606401610549565b600083116108615760405162461bcd60e51b815260206004820152600d60248201526c496e76616c69642076616c756560981b6044820152606401610549565b60018210158015610873575060648211155b6108b45760405162461bcd60e51b8152602060048201526012602482015271496e76616c6964207269736b2073636f726560701b6044820152606401610549565b6040805160a0810182526001600160a01b038681168083526020808401888152848601888152426060870190815260016080880181815260008781526003808852908b902099518a546001600160a01b031916991698909817895593519088015590516002870155519385019390935591516004909301805460ff191693151593909317909255825186815290810185905290917f6dfa51bb153d5081a12f5746a2923584cfe41a15ccb186838664c71125c0fb6e910160405180910390a250505050565b7fa49807205ce4d355092ef5a8a18f56e8913cf4a201fbe287825b095693c217756109a381610b46565b600085116109ec5760405162461bcd60e51b8152602060048201526016602482015275125b9d985b1a590818dbdd995c9859d9481b1a5b5a5d60521b6044820152606401610549565b60008411610a335760405162461bcd60e51b8152602060048201526014602482015273496e76616c6964207072656d69756d207261746560601b6044820152606401610549565b600083118015610a435750828210155b610a825760405162461bcd60e51b815260206004820152601060248201526f24b73b30b634b210323ab930ba34b7b760811b6044820152606401610549565b6004805460009182610a9383610e36565b909155506040805160a08101825288815260208082018981528284018981526060840189815260016080860181815260008981526002808852908990209751885594519187019190915591519285019290925590516003840155516004909201805460ff191692151592909217909155815189815290810188905291925082917f4a0f5ad7e99c46504786d86cb53f9e3b152f5fe5e9b2fcc24f60c3ab4554c3e0910160405180910390a2505050505050565b610b508133610c50565b50565b6000610b5f83836104d3565b610bdd576000838152602081815260408083206001600160a01b03861684529091529020805460ff19166001179055610b953390565b6001600160a01b0316826001600160a01b0316847f2f8788117e7eff1d82e926ec794901d17c78024a50270940304540a733656f0d60405160405180910390a450600161046a565b50600061046a565b6000610bf183836104d3565b15610bdd576000838152602081815260408083206001600160a01b0386168085529252808320805460ff1916905551339286917ff6391f5c32d9c69d2a47ea670b442974b53935d1edc7fd64eb21e047a839171b9190a450600161046a565b610c5a82826104d3565b610c895760405163e2517d3f60e01b81526001600160a01b038216600482015260248101839052604401610549565b5050565b600060208284031215610c9f57600080fd5b81356001600160e01b031981168114610cb757600080fd5b9392505050565b80356001600160a01b0381168114610cd557600080fd5b919050565b600060208284031215610cec57600080fd5b610cb782610cbe565b600060208284031215610d0757600080fd5b5035919050565b60008060408385031215610d2157600080fd5b82359150610d3160208401610cbe565b90509250929050565b600080600060608486031215610d4f57600080fd5b8335925060208401359150610d6660408501610cbe565b90509250925092565b600080600060608486031215610d8457600080fd5b610d8d84610cbe565b95602085013595506040909401359392505050565b60008060008060808587031215610db857600080fd5b5050823594602084013594506040840135936060013592509050565b634e487b7160e01b600052601160045260246000fd5b808202811582820484141761046a5761046a610dd4565b600082610e1e57634e487b7160e01b600052601260045260246000fd5b500490565b8082018082111561046a5761046a610dd4565b600060018201610e4857610e48610dd4565b506001019056fea2646970667358221220b0700255cd94d5ae4061af19189971c2e1d5817f7d4b8c9cc746f5044538423e64736f6c63430008190033",
        "nonce": "0x47",
        "chainId": "0x72"
      },
      "additionalContracts": [],
      "isFixedGasLimit": false
    },
    {
      "hash": "0x0e616ed703419dcace22b5fcbd7de5742ab7bb98cb959c7403947b2ef158973d",
      "transactionType": "CALL",
      "contractName": "InsuranceCore",
      "contractAddress": "0x777f89bd5244bb8cae11f57eee52d6957140ede0",
      "function": "grantRole(bytes32,address)",
      "arguments": [
        "0x0000000000000000000000000000000000000000000000000000000000000000",
        "0x9f7cF1d1F558E57ef88a59ac3D47214eF25B6A06"
      ],
      "transaction": {
        "from": "0x6a3131c7a9228c7953e79d903c4fb8161ab4521e",
        "to": "0x777f89bd5244bb8cae11f57eee52d6957140ede0",
        "gas": "0x1243b",
        "value": "0x0",
        "input": "0x2f2ff15d00000000000000000000000000000000000000000000000000000000000000000000000000000000000000009f7cf1d1f558e57ef88a59ac3d47214ef25b6a06",
        "nonce": "0x48",
        "chainId": "0x72"
      },
      "additionalContracts": [],
      "isFixedGasLimit": false
    },
    {
      "hash": "0xb2017d9cd0962317e1b344999c5e4f7b616a427313610ee561c59611e204ac6e",
      "transactionType": "CALL",
      "contractName": "InsuranceCore",
      "contractAddress": "0x777f89bd5244bb8cae11f57eee52d6957140ede0",
      "function": "grantRole(bytes32,address)",
      "arguments": [
        "0xa49807205ce4d355092ef5a8a18f56e8913cf4a201fbe287825b095693c21775",
        "0x9f7cF1d1F558E57ef88a59ac3D47214eF25B6A06"
      ],
      "transaction": {
        "from": "0x6a3131c7a9228c7953e79d903c4fb8161ab4521e",
        "to": "0x777f89bd5244bb8cae11f57eee52d6957140ede0",
        "gas": "0x1266c",
        "value": "0x0",
        "input": "0x2f2ff15da49807205ce4d355092ef5a8a18f56e8913cf4a201fbe287825b095693c217750000000000000000000000009f7cf1d1f558e57ef88a59ac3d47214ef25b6a06",
        "nonce": "0x49",
        "chainId": "0x72"
      },
      "additionalContracts": [],
      "isFixedGasLimit": false
    },
    {
      "hash": "0x68bde06cbb99569c2afcea5927f66461f739486b478574a0031e69c7d87bbf03",
      "transactionType": "CALL",
      "contractName": "InsuranceCore",
      "contractAddress": "0x777f89bd5244bb8cae11f57eee52d6957140ede0",
      "function": "grantRole(bytes32,address)",
      "arguments": [
        "0x4848aa3d2c0568bab3ca9720f91818ee0957e95426fa0627cc4809e2e5ed8be0",
        "0x9f7cF1d1F558E57ef88a59ac3D47214eF25B6A06"
      ],
      "transaction": {
        "from": "0x6a3131c7a9228c7953e79d903c4fb8161ab4521e",
        "to": "0x777f89bd5244bb8cae11f57eee52d6957140ede0",
        "gas": "0x1266c",
        "value": "0x0",
        "input": "0x2f2ff15d4848aa3d2c0568bab3ca9720f91818ee0957e95426fa0627cc4809e2e5ed8be00000000000000000000000009f7cf1d1f558e57ef88a59ac3d47214ef25b6a06",
        "nonce": "0x4a",
        "chainId": "0x72"
      },
      "additionalContracts": [],
      "isFixedGasLimit": false
    },
    {
      "hash": "0x56a7bffd997a98b2aa521038c6af5bb9d56810d1bd06cbedbb25382d05295d01",
      "transactionType": "CALL",
      "contractName": "InsuranceCore",
      "contractAddress": "0x777f89bd5244bb8cae11f57eee52d6957140ede0",
      "function": "addCoverageOption(uint256,uint256,uint256,uint256)",
      "arguments": [
        "100000000000000000000000",
        "100",
        "2592000",
        "31536000"
      ],
      "transaction": {
        "from": "0x6a3131c7a9228c7953e79d903c4fb8161ab4521e",
        "to": "0x777f89bd5244bb8cae11f57eee52d6957140ede0",
        "gas": "0x35bea",
        "value": "0x0",
        "input": "0xfa42e1db00000000000000000000000000000000000000000000152d02c7e14af680000000000000000000000000000000000000000000000000000000000000000000640000000000000000000000000000000000000000000000000000000000278d000000000000000000000000000000000000000000000000000000000001e13380",
        "nonce": "0x4b",
        "chainId": "0x72"
      },
      "additionalContracts": [],
      "isFixedGasLimit": false
    },
    {
      "hash": "0xa7f82e4171aca62ee297707a3d1052fadbb3d7fbd2b930c6b135a7775c400719",
      "transactionType": "CALL",
      "contractName": "InsuranceCore",
      "contractAddress": "0x777f89bd5244bb8cae11f57eee52d6957140ede0",
      "function": "addCoverageOption(uint256,uint256,uint256,uint256)",
      "arguments": [
        "500000000000000000000000",
        "150",
        "7776000",
        "63072000"
      ],
      "transaction": {
        "from": "0x6a3131c7a9228c7953e79d903c4fb8161ab4521e",
        "to": "0x777f89bd5244bb8cae11f57eee52d6957140ede0",
        "gas": "0x2ff95",
        "value": "0x0",
        "input": "0xfa42e1db0000000000000000000000000000000000000000000069e10de76676d08000000000000000000000000000000000000000000000000000000000000000000096000000000000000000000000000000000000000000000000000000000076a7000000000000000000000000000000000000000000000000000000000003c26700",
        "nonce": "0x4c",
        "chainId": "0x72"
      },
      "additionalContracts": [],
      "isFixedGasLimit": false
    }
  ],
  "receipts": [
    {
      "status": "0x1",
      "cumulativeGasUsed": "0xe34b7",
      "logs": [
        {
          "address": "0x777f89bd5244bb8cae11f57eee52d6957140ede0",
          "topics": [
            "0x2f8788117e7eff1d82e926ec794901d17c78024a50270940304540a733656f0d",
            "0x0000000000000000000000000000000000000000000000000000000000000000",
            "0x0000000000000000000000006a3131c7a9228c7953e79d903c4fb8161ab4521e",
            "0x0000000000000000000000006a3131c7a9228c7953e79d903c4fb8161ab4521e"
          ],
          "data": "0x",
          "blockHash": "0xe5a6da71c476e36354411d96982036d87906680099051fcce628177aafc697cb",
          "blockNumber": "0x1055b5b",
          "transactionHash": "0x99560f8593e8fcac0febc303f238f9a02e8797840764211f85085afef7868150",
          "transactionIndex": "0x0",
          "logIndex": "0x0",
          "removed": false
        },
        {
          "address": "0x777f89bd5244bb8cae11f57eee52d6957140ede0",
          "topics": [
            "0x2f8788117e7eff1d82e926ec794901d17c78024a50270940304540a733656f0d",
            "0xa49807205ce4d355092ef5a8a18f56e8913cf4a201fbe287825b095693c21775",
            "0x0000000000000000000000006a3131c7a9228c7953e79d903c4fb8161ab4521e",
            "0x0000000000000000000000006a3131c7a9228c7953e79d903c4fb8161ab4521e"
          ],
          "data": "0x",
          "blockHash": "0xe5a6da71c476e36354411d96982036d87906680099051fcce628177aafc697cb",
          "blockNumber": "0x1055b5b",
          "transactionHash": "0x99560f8593e8fcac0febc303f238f9a02e8797840764211f85085afef7868150",
          "transactionIndex": "0x0",
          "logIndex": "0x1",
          "removed": false
        },
        {
          "address": "0x1000000000000000000000000000000000000002",
          "topics": [
            "0xe7aa66356adbd5e839ef210626f6d8f6f72109c17fadf4c4f9ca82b315ae79b4"
          ],
          "data": "0x000000000000000000000000c738fdcde9cd2fbd72618d36ed71008b8d001ba4000000000000000000000000000000000000000000000000000000000000421a",
          "blockHash": "0xe5a6da71c476e36354411d96982036d87906680099051fcce628177aafc697cb",
          "blockNumber": "0x1055b5b",
          "transactionHash": "0x99560f8593e8fcac0febc303f238f9a02e8797840764211f85085afef7868150",
          "transactionIndex": "0x0",
          "logIndex": "0x2",
          "removed": false
        },
        {
          "address": "0x1000000000000000000000000000000000000002",
          "topics": [
            "0xe7aa66356adbd5e839ef210626f6d8f6f72109c17fadf4c4f9ca82b315ae79b4"
          ],
          "data": "0x000000000000000000000000d2a1bb23eb350814a30dd6f9de78bb2c8fdd9f1d0000000000000000000000000000000000000000000000000000000000005ed0",
          "blockHash": "0xe5a6da71c476e36354411d96982036d87906680099051fcce628177aafc697cb",
          "blockNumber": "0x1055b5b",
          "transactionHash": "0x99560f8593e8fcac0febc303f238f9a02e8797840764211f85085afef7868150",
          "transactionIndex": "0x0",
          "logIndex": "0x3",
          "removed": false
        },
        {
          "address": "0x1000000000000000000000000000000000000002",
          "topics": [
            "0xe7aa66356adbd5e839ef210626f6d8f6f72109c17fadf4c4f9ca82b315ae79b4"
          ],
          "data": "0x0000000000000000000000006892bdbbb14e1c9bd46bf31e7bac94d038fc82a6000000000000000000000000000000000000000000000000000000000000422d",
          "blockHash": "0xe5a6da71c476e36354411d96982036d87906680099051fcce628177aafc697cb",
          "blockNumber": "0x1055b5b",
          "transactionHash": "0x99560f8593e8fcac0febc303f238f9a02e8797840764211f85085afef7868150",
          "transactionIndex": "0x0",
          "logIndex": "0x4",
          "removed": false
        },
        {
          "address": "0x1000000000000000000000000000000000000002",
          "topics": [
            "0xe7aa66356adbd5e839ef210626f6d8f6f72109c17fadf4c4f9ca82b315ae79b4"
          ],
          "data": "0x000000000000000000000000bd33bdff04c357f7fc019e72d0504c24cf4aa0100000000000000000000000000000000000000000000000000000000000008688",
          "blockHash": "0xe5a6da71c476e36354411d96982036d87906680099051fcce628177aafc697cb",
          "blockNumber": "0x1055b5b",
          "transactionHash": "0x99560f8593e8fcac0febc303f238f9a02e8797840764211f85085afef7868150",
          "transactionIndex": "0x0",
          "logIndex": "0x5",
          "removed": false
        },
        {
          "address": "0x1000000000000000000000000000000000000002",
          "topics": [
            "0xe7aa66356adbd5e839ef210626f6d8f6f72109c17fadf4c4f9ca82b315ae79b4"
          ],
          "data": "0x000000000000000000000000a90db6d10f856799b10ef2a77ebcbf460ac71e5200000000000000000000000000000000000000000000000000000000000024f3",
          "blockHash": "0xe5a6da71c476e36354411d96982036d87906680099051fcce628177aafc697cb",
          "blockNumber": "0x1055b5b",
          "transactionHash": "0x99560f8593e8fcac0febc303f238f9a02e8797840764211f85085afef7868150",
          "transactionIndex": "0x0",
          "logIndex": "0x6",
          "removed": false
        },
        {
          "address": "0x1000000000000000000000000000000000000002",
          "topics": [
            "0xe7aa66356adbd5e839ef210626f6d8f6f72109c17fadf4c4f9ca82b315ae79b4"
          ],
          "data": "0x0000000000000000000000000b162ca3acf3482d3357972e12d794434085d8390000000000000000000000000000000000000000000000000000000000020052",
          "blockHash": "0xe5a6da71c476e36354411d96982036d87906680099051fcce628177aafc697cb",
          "blockNumber": "0x1055b5b",
          "transactionHash": "0x99560f8593e8fcac0febc303f238f9a02e8797840764211f85085afef7868150",
          "transactionIndex": "0x0",
          "logIndex": "0x7",
          "removed": false
        }
      ],
      "logsBloom": "0x00020004000000000100000000000000000000000000000000000000000000000000000000000000000000000000000000000000000000000000000000000000000000000000000000440000000000000000000020000000000080000000000000000000020000000000000000000800000000000000000805000000000000000000000000000000000000000000004000000000000000000000800400000000080000000000000000001000000000000000000000000000001000000000000000000000000000000000200000000000000000000000000100000000000020000000000000000000000000000000000000000000000000000000000000000000",
      "type": "0x0",
      "transactionHash": "0x99560f8593e8fcac0febc303f238f9a02e8797840764211f85085afef7868150",
      "transactionIndex": "0x0",
      "blockHash": "0xe5a6da71c476e36354411d96982036d87906680099051fcce628177aafc697cb",
      "blockNumber": "0x1055b5b",
      "gasUsed": "0xe34b7",
      "effectiveGasPrice": "0x5d21dba00",
      "from": "0x6a3131c7a9228c7953e79d903c4fb8161ab4521e",
      "to": null,
      "contractAddress": "0x777f89bd5244bb8cae11f57eee52d6957140ede0"
    },
    {
      "status": "0x1",
      "cumulativeGasUsed": "0x6daa9",
      "logs": [
        {
          "address": "0x777f89bd5244bb8cae11f57eee52d6957140ede0",
          "topics": [
            "0x2f8788117e7eff1d82e926ec794901d17c78024a50270940304540a733656f0d",
            "0x0000000000000000000000000000000000000000000000000000000000000000",
            "0x0000000000000000000000009f7cf1d1f558e57ef88a59ac3d47214ef25b6a06",
            "0x0000000000000000000000006a3131c7a9228c7953e79d903c4fb8161ab4521e"
          ],
          "data": "0x",
          "blockHash": "0x52ba82e7648eec72009d276f6ff8bd61505571d23a1469fb770ecc018ffc1403",
          "blockNumber": "0x1055b5d",
          "transactionHash": "0x0e616ed703419dcace22b5fcbd7de5742ab7bb98cb959c7403947b2ef158973d",
          "transactionIndex": "0x2",
          "logIndex": "0x8",
          "removed": false
        }
      ],
      "logsBloom": "0x00000004000000000100000000000000000000000000000000000000000000000000000000000000000000000000000000000000000000000000000000000000000040000000000000040000000000000000000000000000000000000000000000000000020000000000000000000800000000000000000004000000000000000000000000000000000000800000000000000000000000000000800000000000000000004000000000001000000000000000000000000000001000000000000000000000000000000000200000000000000000000000000100000000000020000000000000000000000000000000000000000000000000000000000000000000",
      "type": "0x0",
      "transactionHash": "0x0e616ed703419dcace22b5fcbd7de5742ab7bb98cb959c7403947b2ef158973d",
      "transactionIndex": "0x2",
      "blockHash": "0x52ba82e7648eec72009d276f6ff8bd61505571d23a1469fb770ecc018ffc1403",
      "blockNumber": "0x1055b5d",
      "gasUsed": "0xc7d1",
      "effectiveGasPrice": "0x5d21dba00",
      "from": "0x6a3131c7a9228c7953e79d903c4fb8161ab4521e",
      "to": "0x777f89bd5244bb8cae11f57eee52d6957140ede0",
      "contractAddress": null
    },
    {
      "status": "0x1",
      "cumulativeGasUsed": "0x7a3fa",
      "logs": [
        {
          "address": "0x777f89bd5244bb8cae11f57eee52d6957140ede0",
          "topics": [
            "0x2f8788117e7eff1d82e926ec794901d17c78024a50270940304540a733656f0d",
            "0xa49807205ce4d355092ef5a8a18f56e8913cf4a201fbe287825b095693c21775",
            "0x0000000000000000000000009f7cf1d1f558e57ef88a59ac3d47214ef25b6a06",
            "0x0000000000000000000000006a3131c7a9228c7953e79d903c4fb8161ab4521e"
          ],
          "data": "0x",
          "blockHash": "0x52ba82e7648eec72009d276f6ff8bd61505571d23a1469fb770ecc018ffc1403",
          "blockNumber": "0x1055b5d",
          "transactionHash": "0xb2017d9cd0962317e1b344999c5e4f7b616a427313610ee561c59611e204ac6e",
          "transactionIndex": "0x3",
          "logIndex": "0x9",
          "removed": false
        }
      ],
      "logsBloom": "0x00000004000000000100000000000000000000000000000000000000000000000000000000000000000000000000000000000000000000000000000000000000000040000000000000040000000000000000000020000000000000000000000000000000000000000000000000000000000000000000000804000000000000000000000000000000000000800000004000000000000000000000800000000000000000004000000000001000000000000000000000000000001000000000000000000000000000000000200000000000000000000000000100000000000000000000000000000000000000000000000000000000000000000000000000000000",
      "type": "0x0",
      "transactionHash": "0xb2017d9cd0962317e1b344999c5e4f7b616a427313610ee561c59611e204ac6e",
      "transactionIndex": "0x3",
      "blockHash": "0x52ba82e7648eec72009d276f6ff8bd61505571d23a1469fb770ecc018ffc1403",
      "blockNumber": "0x1055b5d",
      "gasUsed": "0xc951",
      "effectiveGasPrice": "0x5d21dba00",
      "from": "0x6a3131c7a9228c7953e79d903c4fb8161ab4521e",
      "to": "0x777f89bd5244bb8cae11f57eee52d6957140ede0",
      "contractAddress": null
    },
    {
      "status": "0x1",
      "cumulativeGasUsed": "0x86d4b",
      "logs": [
        {
          "address": "0x777f89bd5244bb8cae11f57eee52d6957140ede0",
          "topics": [
            "0x2f8788117e7eff1d82e926ec794901d17c78024a50270940304540a733656f0d",
            "0x4848aa3d2c0568bab3ca9720f91818ee0957e95426fa0627cc4809e2e5ed8be0",
            "0x0000000000000000000000009f7cf1d1f558e57ef88a59ac3d47214ef25b6a06",
            "0x0000000000000000000000006a3131c7a9228c7953e79d903c4fb8161ab4521e"
          ],
          "data": "0x",
          "blockHash": "0x52ba82e7648eec72009d276f6ff8bd61505571d23a1469fb770ecc018ffc1403",
          "blockNumber": "0x1055b5d",
          "transactionHash": "0x68bde06cbb99569c2afcea5927f66461f739486b478574a0031e69c7d87bbf03",
          "transactionIndex": "0x4",
          "logIndex": "0xa",
          "removed": false
        }
      ],
      "logsBloom": "0x00000004000000000100000000000000000008000000000000000000000000000000000000000000000000008000000000000000000000000000000000000000000040002000000000040000000000000000000000000000000000000000000000000000000000000000000000000000000000000000000004000000000000000000000000000000000000800000000000000000000000000000800000000000000000004000000000001000000000000000000000000000001000000000000000000000000000000000200000000000000000000000000100000000000000000000000000000000000000000000000000000000000000000000000000000000",
      "type": "0x0",
      "transactionHash": "0x68bde06cbb99569c2afcea5927f66461f739486b478574a0031e69c7d87bbf03",
      "transactionIndex": "0x4",
      "blockHash": "0x52ba82e7648eec72009d276f6ff8bd61505571d23a1469fb770ecc018ffc1403",
      "blockNumber": "0x1055b5d",
      "gasUsed": "0xc951",
      "effectiveGasPrice": "0x5d21dba00",
      "from": "0x6a3131c7a9228c7953e79d903c4fb8161ab4521e",
      "to": "0x777f89bd5244bb8cae11f57eee52d6957140ede0",
      "contractAddress": null
    },
    {
      "status": "0x1",
      "cumulativeGasUsed": "0xadbdb",
      "logs": [
        {
          "address": "0x777f89bd5244bb8cae11f57eee52d6957140ede0",
          "topics": [
            "0x4a0f5ad7e99c46504786d86cb53f9e3b152f5fe5e9b2fcc24f60c3ab4554c3e0",
            "0x0000000000000000000000000000000000000000000000000000000000000000"
          ],
          "data": "0x00000000000000000000000000000000000000000000152d02c7e14af68000000000000000000000000000000000000000000000000000000000000000000064",
          "blockHash": "0x52ba82e7648eec72009d276f6ff8bd61505571d23a1469fb770ecc018ffc1403",
          "blockNumber": "0x1055b5d",
          "transactionHash": "0x56a7bffd997a98b2aa521038c6af5bb9d56810d1bd06cbedbb25382d05295d01",
          "transactionIndex": "0x5",
          "logIndex": "0xb",
          "removed": false
        }
      ],
      "logsBloom": "0x00000000000024000100000000000000000000000000000000000000000000000000000000000000000000000000000000000000000000000000000000000000000000000000000000040000000000000000000000000000000000000000000000000000020000000000000000000800000000000000000000000000000000000000000000000000000000000000000000000000000000000000000000000000000000000000000000000000000000000000000000000000000000000000000000000000000000000000200000000000000000200000000000000000000020000000000000000000000000000000000000000000000000000000000000000000",
      "type": "0x0",
      "transactionHash": "0x56a7bffd997a98b2aa521038c6af5bb9d56810d1bd06cbedbb25382d05295d01",
      "transactionIndex": "0x5",
      "blockHash": "0x52ba82e7648eec72009d276f6ff8bd61505571d23a1469fb770ecc018ffc1403",
      "blockNumber": "0x1055b5d",
      "gasUsed": "0x26e90",
      "effectiveGasPrice": "0x5d21dba00",
      "from": "0x6a3131c7a9228c7953e79d903c4fb8161ab4521e",
      "to": "0x777f89bd5244bb8cae11f57eee52d6957140ede0",
      "contractAddress": null
    },
    {
      "status": "0x1",
      "cumulativeGasUsed": "0xd0793",
      "logs": [
        {
          "address": "0x777f89bd5244bb8cae11f57eee52d6957140ede0",
          "topics": [
            "0x4a0f5ad7e99c46504786d86cb53f9e3b152f5fe5e9b2fcc24f60c3ab4554c3e0",
            "0x0000000000000000000000000000000000000000000000000000000000000001"
          ],
          "data": "0x0000000000000000000000000000000000000000000069e10de76676d08000000000000000000000000000000000000000000000000000000000000000000096",
          "blockHash": "0x52ba82e7648eec72009d276f6ff8bd61505571d23a1469fb770ecc018ffc1403",
          "blockNumber": "0x1055b5d",
          "transactionHash": "0xa7f82e4171aca62ee297707a3d1052fadbb3d7fbd2b930c6b135a7775c400719",
          "transactionIndex": "0x6",
          "logIndex": "0xc",
          "removed": false
        }
      ],
      "logsBloom": "0x00000000000024000100000000000000000000000000000000000000000000000000000000000000000000000000000000000000000000000000000000040000000000000000000000040000000000000000000000040000000000000000000000000000000000000000000000000000000000000000000000000000000000000000000000000000000000000000000000000000000000000000000000000000000000000000000000000000000000000000000000000000000000000000000000000000000000000000200000000000000000200000000000000000000040000000000000000000000000000000000000000000000000000000000000000000",
      "type": "0x0",
      "transactionHash": "0xa7f82e4171aca62ee297707a3d1052fadbb3d7fbd2b930c6b135a7775c400719",
      "transactionIndex": "0x6",
      "blockHash": "0x52ba82e7648eec72009d276f6ff8bd61505571d23a1469fb770ecc018ffc1403",
      "blockNumber": "0x1055b5d",
      "gasUsed": "0x22bb8",
      "effectiveGasPrice": "0x5d21dba00",
      "from": "0x6a3131c7a9228c7953e79d903c4fb8161ab4521e",
      "to": "0x777f89bd5244bb8cae11f57eee52d6957140ede0",
      "contractAddress": null
    }
  ],
  "libraries": [],
  "pending": [],
  "returns": {},
  "timestamp": 1745509473,
  "chain": 114,
  "commit": "309bd99"
}